:020000040800F2
:10000000100C00208D1300089103000893030008D2
:10001000970300089B0300089F03000800000000EE
:10002000000000000000000000000000A303000822
:10003000A503000800000000A7030008A9030008AA
:10004000A7130008A7130008A7130008A7130008A8
:10005000A7130008A7130008A7130008A713000898
:10006000A7130008A7130008A7130008A713000888
:10007000A7130008A7130008A7130008A713000878
:10008000A7130008A7130008A7130008A713000868
:10009000A7130008A7130008A7130008A713000858
:1000A000A7130008A7130008A7130008A713000848
:1000B000A7130008A7130008A7130008A713000838
:1000C000A7130008A7130008A7130008A713000828
:1000D000A713000801130008A7130008A7130008BE
:1000E000A7130008A7130008A7130008A713000808
:1000F000A7130008A7130008A7130008A7130008F8
:10010000A7130008A7130008A7130008A7130008E7
:10011000A7130008A7130008A7130008A7130008D7
:10012000A7130008A7130008A7130008A7130008C7
:10013000A7130008A7130008A7130008A7130008B7
:10014000A7130008A7130008A7130008A7130008A7
:10015000A7130008A7130008A7130008A713000897
:10016000A7130008A7130008A7130008A713000887
:10017000A7130008A7130008A7130008A713000877
:10018000A7130008A713000800F002F800F060F8B9
:100190000AA090E8000C82448344AAF10107DA45E2
:1001A00001D100F055F8AFF2090EBAE80F0013F0D4
:1001B000010F18BFFB1A43F0010318471C69000028
:1001C0003C69000010F8013B0A4413F0030408BF27
:1001D00010F8014B1D1108BF10F8015B641E05D01B
:1001E00010F8016B641E01F8016BF9D1002D15D0D8
:1001F00010F8014B03F00C030C2BA1EB04040ABF15
:1002000010F8013BA4EB8314A4EB032405F10103D4
:1002100014F8016B5B1E01F8016BF9D5914238BFF0
:1002200010F8013BD1D3704700230024002500269D
:10023000103A28BF78C1FBD8520728BF30C148BF49
:100240000B6070471FB506F02DFB1FBD10B510BD2C
:1002500006F0F6FA1146FFF7F5FF00F009F806F090
:1002600014FB03B4FFF7F2FF03BC00F0E5FF00004E
:10027000A82000F05FFF642000F0BEFF00F022FF26
:1002800000F015FC642000F0B7FF00F08DFD1EE0CB
:1002900000F021FC3A4802890121084600F0AEFE38
:1002A00037480089A0F12D020321012000F0A6FEAD
:1002B0000120344908604FF47A7000F09DFF00205F
:1002C0003149C1F8A4024FF47A7000F095FFDFE7DE
:1002D00070B586B0064600241CB9304602F0C1FA5B
:1002E00004462CB901AA02A9304603F05FF904467E
:1002F0002CB903AA04A9304603F035FC044624B9FE
:100300000021304602F030FE04462CB901220021C3
:10031000304602F048FC04462CB901221146304612
:1003200002F041FC044634B94FF4804201213046CA
:1003300002F0FEFB044634B94FF49012002130461F
:1003400002F0F6FB044624B91049304602F001F8E9
:1003500004468CB900250CE00949304603F097FAB1
:10036000044605AA0321304602F0ADFF04B102E0C5
:100370006D1C0A2DF0DB00BF204606B070BD0000EA
:1003800008030020A482424200804242400D030044
:10039000704700BFFEE700BFFEE700BFFEE700BFFB
:1003A000FEE7704770477047704700000CB50020AB
:1003B000019000907648006840F4803074490860ED
:1003C00000BF7348006800F4003000900198401CA2
:1003D0000190009818B90198B0F5A04FF1D16C4880
:1003E000006800F4003010B10120009001E000200E
:1003F00000900098012846D165484030006840F0E0
:1004000080506349403108606248006840F44040D1
:10041000604908605E48083000685D49083108603E
:100420000846006840F4004008600846006840F450
:10043000A05008605848091F0860081F006840F075
:100440008070091F086000BF5148006800F000700C
:100450000028F9D040F20570504908604C48083037
:10046000006820F003004A49083108600846006827
:1004700040F00200086000BF45480830006800F006
:100480000C000828F8D10CBD10B54548006840F4B0
:100490007000434908603E48006840F001003C4954
:1004A000086000203A4908310860394800683D4931
:1004B0000840374908603C48091D0860081F00686B
:1004C00020F48020091F0860002031490C310860A9
:1004D000FFF76CFF4FF0006031498039086010BDB4
:1004E00070B500200022022300240221284D083587
:1004F0002D6805F00C0020B1042806D0082834D15E
:1005000007E02A4D2A4E356033E02A4D284E3560EB
:100510002FE01F4D2D1D2D68C5F380541C4D2D1D42
:100520002D6805F03F0154B1224DB5FBF1F5184E91
:10053000361D3668C6F3881605FB06F209E01B4D2A
:10054000B5FBF1F5124E361D3668C6F3881605FB6D
:1005500006F20F4D2D1D2D68C5F301456D1C6B0076
:10056000B2FBF3F5124E356003E0104D104E3560CE
:1005700000BF00BF064D08352D68C5F303150E4EAC
:10058000705D0B4D2D68C540094E356070BD000093
:10059000003802400070004008544007003C024010
:1005A00088ED00E0FFFFF6FE103000240024F40088
:1005B0002000002000127A00240000201CB5012138
:1005C000042001F097FA4FF42070009001208DF87C
:1005D000040000208DF8060003208DF8050001209E
:1005E0008DF807006946F84800F0E6FF4FF4C06157
:1005F000F64801F05DF81CBD1CB54FF4007000908A
:1006000001208DF8040000208DF8060003208DF8ED
:10061000050001208DF807006946EB4800F0CCFF8B
:100620001CBD1CB54FF40070009000208DF8040034
:1006300003208DF8050001208DF807006946E24887
:1006400000F0BAFF1CBD1CB58020009001208DF881
:10065000040000208DF8060003208DF8050001201D
:100660008DF807006946D84800F0A6FF1CBD1CB5F0
:100670008020009000208DF8040003208DF80500F4
:1006800001208DF807006946CF4800F095FF1CBD9A
:10069000002001E0411CC8B2FA28FBDB704710B50E
:1006A000FFF7AAFFFFF7CFFF0120C9490860C9493A
:1006B000C1F89C02FFF7ECFF0020C5490860FFF776
:1006C000E7FFFFF7E5FF0020C249C1F89C02FFF7F2
:1006D000DFFF10BD00B50020BD490860BD49C1F86D
:1006E0009C02FFF7D5FF0120B94908390860FFF7E0
:1006F000CFFF0120B749C1F8A402FFF7C9FF00BD31
:100700002DE9F0410446254600271BE005F0800056
:1007100018B10120AE49086002E00020AC49086031
:10072000FFF7B6FF0120AA4908390860FFF7B0FFBC
:100730000020A849C1F89C02FFF7AAFF6806050E31
:10074000781CC7B2082FE1DBFFF76BFF0120A0493F
:1007500008390860FFF79CFF9E48D0F82402C6B213
:1007600000209B4908390860FFF792FFFFF744FF1C
:100770003046BDE8F08170B505460024FFF751FF13
:10078000002616E06006040E012091490839086031
:10079000FFF77EFF8F48D0F82402012801D1601CAA
:1007A000C4B200208A4908390860FFF771FF701C45
:1007B000C6B2082EE6DBFFF71FFF012D03D1012093
:1007C0008349086002E0002081490860FFF760FF6C
:1007D00001207F4908390860FFF75AFF00207D4952
:1007E000C1F89C02FFF754FF204670BD2DE9F0418F
:1007F00007460C4615460026FFF751FF5220FFF72B
:100800007FFF2046FFF77CFF2846FFF779FFFFF7C1
:1008100061FF3046BDE8F0812DE9F04106460D4606
:1008200014464FF00008270A3A4629463046FFF79B
:10083000DDFF681CC5B2E7B23A4629463046FFF7ED
:10084000D5FFFFF747FF4046BDE8F0812DE9F041B5
:1008500006460D4614464FF00008270E3A46294634
:100860003046FFF7C3FF681CC5B2C4F307473A46DA
:1008700029463046FFF7BAFF681CC5B2C4F3072704
:100880003A4629463046FFF7B1FF681CC5B2E7B2C9
:100890003A4629463046FFF7A9FF4046BDE8F081B9
:1008A0002DE9F04107460C4615460026FFF7F7FEF6
:1008B0005220FFF725FF2046FFF722FFFFF70AFF30
:1008C000FFF7EDFE5320FFF71BFF0120FFF753FF5B
:1008D0002870FFF7FFFE3046BDE8F0812DE9F843B0
:1008E00007460D4616464FF00008002409E00DEBC0
:1008F000040229463846FFF7D3FF681CC5B2601CC6
:10090000C4B2022CF3DB9DF801009DF8001000EB4F
:10091000012030804046BDE8F8832DE9F8430746C2
:100920000D4616464FF00008002409E00DEB0402C6
:1009300029463846FFF7B4FF681CC5B2601CC4B234
:10094000042CF3DB9DF8000000069DF8011000EB7D
:1009500001409DF8021000EB01209DF803100844AF
:1009600030604046BDE8F8832DE9F84306460F465F
:1009700014461D464FF000086A4639463046FFF7D8
:100980008FFF9DF800002040284300909DF8002034
:1009900039463046FFF72AFF4046BDE8F883024655
:1009A0000020002101E04B1C99B244F620639942DB
:1009B000F9DB70472DE9F04780460D4614461E4688
:1009C0004FF00009002711E0000802400014024027
:1009D000A402414200004142227829464046FFF7E6
:1009E00005FF681CC5B2641C781CC7B2B742F3D3BC
:1009F0004846BDE8F0872DE9F04780460C4615468D
:100A00001E464FF00009002709E02A4621464046CD
:100A1000FFF746FF601CC4B26D1C781CC7B2B7421A
:100A2000F3D34846BDE8F0877FB5054600241CB9DE
:100A3000284601F016FF04462CB96A4601A928464B
:100A400002F0B4FD04462CB902AA03A9284603F01B
:100A50008AF8044624B90021284602F085FA0446A3
:100A60002CB901220021284602F09DF804462CB939
:100A700001221146284602F096F8044634B94FF494
:100A800080420121284602F053F8044634B94FF45D
:100A900090120021284602F04BF8044624B916496A
:100AA000284601F056FC0446204604B070BD10B53F
:100AB000FFF784FDFFF7ECFD1048006801F098FB9C
:100AC0000F4802F0D1F80F490D4801F0BCFB0C486B
:100AD000FFF7AAFF10BD08B50B490C48006802F0EB
:100AE000D6FE0B4908706A4603210848006802F0E8
:100AF000EAFB0548008908BD400D030010000020F6
:100B000024030020840400200803002004000020A7
:100B10000000002070B5044608250121FE4800F0C1
:100B2000C7FD012000F020FB0821FB4800F0C2FDBA
:100B3000052000F019FB24E004F0800038B1042106
:100B4000F54800F0B5FD012000F00EFB06E00421A1
:100B5000F14800F0AFFD012000F006FB0821EE484F
:100B600000F0A6FD032000F0FFFA0821EA4800F09B
:100B7000A1FD012000F0F8FA6006040E012000F04B
:100B8000F3FA281EA5F10101CDB2D5D170BD70B523
:100B9000044608250121E04800F08CFD012000F00A
:100BA000E3FA0821DC4800F085FD052000F0DCFABE
:100BB00024E004F0800038B10421D74800F078FD2B
:100BC000012000F0D1FA06E00421D34800F072FDC4
:100BD000012000F0C9FA0821CF4800F069FD032088
:100BE00000F0C2FA0821CC4800F064FD012000F0BA
:100BF000BBFA6006040E012000F0B6FA281EA5F12B
:100C00000101CDB2D5D170BD70B504460D4605F1D8
:100C1000B001C8B2FFF7BBFF102141EA1410FFF783
:100C2000B6FF04F00F0141F00100FFF7B0FF70BD07
:100C300070B50646002415E004F1B001C8B2FFF714
:100C4000A6FF0120FFF7A3FF1020FFF7A0FF00255C
:100C500004E03046FFF75EFF681CC5B2802DF8DB6C
:100C6000601CC4B2082CE7DB70BD70B5002415E031
:100C700004F1B001C8B2FFF78AFF0120FFF787FF38
:100C80001020FFF784FF002504E00020FFF742FF5B
:100C9000681CC5B2802DF8DB601CC4B2082CE7DBF1
:100CA00070BD10B5044644F0AE00FFF770FF10BDF4
:100CB00010B504462046FFF76AFF10BD10B5044684
:100CC000D520FFF764FF2046FFF761FF10BD10B588
:100CD0000446A820FFF75BFF2046FFF758FF10BD32
:100CE00010B50446D320FFF752FF2046FFF74FFF11
:100CF00010BD10B504468D20FFF749FF44F01000E9
:100D0000FFF745FF10BD10B5044644F04000FFF763
:100D10003EFF10BD10B504462020FFF738FF2046E7
:100D2000FFF735FF10BD10B5044644F0A000FFF7F3
:100D30002EFF10BD10B5044644F0C000FFF727FF9A
:100D400010BD10B50446DA20FFF721FF44F0020081
:100D5000FFF71DFF10BD10B504468120FFF717FFF8
:100D60002046FFF714FF10BD10B50446D920FFF749
:100D70000EFF2046FFF70BFF10BD10B50446DB2029
:100D8000FFF705FF2046FFF702FF10BD10B5044630
:100D900044F0A400FFF7FBFE10BD10B5044644F07C
:100DA000A600FFF7F4FE10BD10B508215A4800F068
:100DB0007FFC0221584800F07DFC322000F01CFA34
:100DC0000221554800F074FC0020FFF76AFF0A205A
:100DD00000F012FA8020FFF771FF0A2000F00CFAF1
:100DE0003F20FFF774FF0A2000F006FA0020FFF70B
:100DF00077FF0A2000F000FA0020FFF784FF0A20A6
:100E000000F0FAF90420FFF774FF0A2000F0F4F96B
:100E10000220FFF77FFF0A2000F0EEF90120FFF724
:100E200082FF0A2000F0E8F90820FFF783FF0A207C
:100E300000F0E2F91020FFF784FF0A2000F0DCF94F
:100E4000CF20FFF788FF0A2000F0D6F9F120FFF746
:100E50008BFF0A2000F0D0F94020FFF78EFF0A2018
:100E600000F0CAF90020FFF791FF0A2000F0C4F952
:100E70000020FFF792FF0A2000F0BEF90120FFF7E3
:100E800010FF0A2000F0B8F90020FFF7D1FE0A2079
:100E900000F0B2F900210846FFF7B6FE0A2000F084
:100EA000ABF910BD2DE9F04106460F46154600246A
:100EB000A04639463046FFF7A7FE2878203800F0D4
:100EC000FF0800BF09E008EB4801144A02EB4101AA
:100ED000085DFFF71FFE601CC4B2062CF3DBBDE803
:100EE000F0812DE9F04782468846C8F30749642619
:100EF000002527E005EB45014906080E5146FFF79E
:100F000083FE99FBF6F00A2190FBF1F201FB12003F
:100F10001030C7B200240DE000100240AE68000897
:100F200007EB4701664A02EB4101085DFFF7F2FD5E
:100F3000601CC4B2062CF3DB0A2096FBF0F0C6B2AC
:100F4000681CC5B2032DD5DBC8F30729642600252C
:100F500024E005EB450149002831C8B25146FFF7AE
:100F600053FE99FBF6F00A2190FBF1F201FB12000F
:100F70001030C7B2002409E007EB4701504A02EBEA
:100F80004101085DFFF7C6FD601CC4B2062CF3DB0F
:100F90000A2096FBF0F0C6B2681CC5B2032DD8DB60
:100FA00008F0FF096426002524E005EB450149000F
:100FB0005031C8B25146FFF727FE99FBF6F00A21DF
:100FC00090FBF1F201FB12001030C7B2002409E0DF
:100FD00007EB47013A4A02EB4101085DFFF79AFD32
:100FE000601CC4B2062CF3DB0A2096FBF0F0C6B2FC
:100FF000681CC5B2032DD8DBBDE8F0872DE9F05F92
:1010000006468B4617464FF000094FF0010A4FF095
:1010100001087FB959463046FFF7F6FD002406E087
:1010200027496031085DFFF775FD601CC4B2062CCE
:10103000F6DB43E0BA46002508E00A20BAFBF0FAE6
:1010400008EB88004FEA4008681CC5B2BAF1000FEF
:10105000F3D1062000FB05607E2805DD05EB450089
:101060004000C0F17E00C6B20A20B8FBF0F823E0D1
:1010700059463046FFF7C8FDB7FBF8F00A21B0FB30
:10108000F1F201FB120909F1100000F0FF09002440
:1010900009E009EB49010A4A02EB4101085DFFF74B
:1010A00039FD601CC4B2062CF3DB0A20B8FBF0F853
:1010B000B01DC6B2681EC5B2002DD9DCBDE8F09FD8
:1010C000AE6800081CB50121202000F013FD4FF48C
:1010D000C060009001208DF8040000208DF806000B
:1010E00003208DF8050001208DF8070069460F48A0
:1010F00000F062FA4FF4C0610C4800F0D9FA012107
:10110000102000F0F7FC0F20009001208DF8040063
:1011100000208DF8060003208DF8050001208DF8D1
:1011200007006946024800F047FA1CBD001402405F
:101130000010024010B504466FF0040000F098F96A
:10114000E11704EB5171C1F3C701394A1170104620
:10115000007800EB4001C1EBC0104FF6FF7101EACF
:10116000C0003449088010BD0146314A12784A4314
:101170004FF0E0235A6100229A611A46126942F048
:1011800001021A6100BF4FF0E022106900F0010275
:101190001AB100F48032002AF5D04FF0E022126933
:1011A00022F001024FF0E0231A6100229A61704799
:1011B0000146204A12884A434FF0E0235A61002238
:1011C0009A611A46126942F001021A6100BF4FF09B
:1011D000E022106900F001021AB100F48032002A06
:1011E000F5D04FF0E022126922F001024FF0E02327
:1011F0001A6100229A61704770B504464FF4077077
:1012000094FBF0F0C6B24FF4077094FBF0F100FBD2
:10121000114085B205E04FF40770FFF7C9FF701E5B
:10122000C6B2002EF7D115B12846FFF7C1FF70BD39
:101230003400002036000020014600BF704700BF88
:101240004E4A128802F04002002AF9D0C2B24B4B3B
:101250009A80704710B588B004460121084600F016
:1012600049FC0121102000F09FFC0722092144487D
:1012700000F02DFA07220A21414800F028FA4FF425
:10128000C060069002208DF81C008DF81D00002023
:101290008DF81E0001208DF81F0006A9384800F0C7
:1012A0008BF902940020ADF80C00ADF80E00ADF8FB
:1012B0001000ADF814000C20ADF8120002A92F4860
:1012C00000F0D3FD01212D4800F057FE40212B48AE
:1012D00000F03BFF012240F22551284800F003FFB7
:1012E00025208DF8040003208DF805008DF80600F8
:1012F00001208DF8070001A800F06DF808B010BDBE
:1013000010B540F225511D4800F028FF10B31B48CE
:1013100000F062FEC4B21B48008800F40040C8B967
:101320001848008800F4804060B10A2C03D00020E7
:101330001449088020E01348008840F40040114917
:10134000088019E00D2C06D10E48008840F480403A
:101350000C49088010E00B480088C0F30D000A49D2
:101360000C5408480088401C06490880084600883C
:10137000C72801DD0020088010BD000000100140DA
:10138000000002403C000020E7040020094880479C
:1013900009480047FEE7FEE7FEE7FEE7FEE7FEE757
:1013A000FEE7FEE7FEE7FEE704480549054A064B6F
:1013B0007047000089040008890100081006002019
:1013C000100C0020100800201008002032490143B2
:1013D000324A1160704770B5002100230F22C47893
:1013E0001CB32E4C246804F4E064C4F5E064C4F338
:1013F0000721C1F10404E3B20A4144789C40E1B200
:101400008478144021430C07210E254C0578615542
:10141000047804F01F050124AC4005786D11AD007F
:1014200005F1E025C5F8004109E0047804F01F0546
:101430000124AC401B4D0678761145F8264070BD5E
:10144000194A0A400243154B1B1F1A60704739B1F5
:10145000124A121D12680243104B1B1D1A6006E04F
:101460000E4A121D126882430C4B1B1D1A607047F6
:10147000042808D14FF0E021096941F004014FF040
:10148000E022116107E04FF0E021096921F0040139
:101490004FF0E022116170470000FA050CED00E00A
:1014A00000E400E080E100E080FFFF1F10B504468B
:1014B0009848844208D10121084600F086FB0021AB
:1014C000012000F082FB76E09348844208D101219C
:1014D000022000F07AFB0021022000F076FB6AE097
:1014E0008E48844208D10121042000F06EFB0021C7
:1014F000042000F06AFB5EE08948844208D10121A3
:10150000082000F062FB0021082000F05EFB52E0A2
:101510008448844208D10121102000F056FB0021AC
:10152000102000F052FB46E07F48844208D10121A0
:10153000202000F04AFB0021202000F046FB3AE08A
:101540007A48844208D10121402000F03EFB00216E
:10155000402000F03AFB2EE07548844208D101217A
:10156000802000F032FB0021802000F02EFB22E0E2
:101570007048844208D10121801500F026FB00212B
:10158000A01500F022FB16E06B48844208D101212F
:10159000401500F01AFB0021601500F016FB0AE070
:1015A0006648844207D10121001500F00EFB00219E
:1015B000201500F00AFB10BDF0B50A4600210023FB
:1015C000002400BF3DE0012505FA01F3156805EA96
:1015D00003049C4234D105684F000326BE40B54346
:1015E000056015794E00B5400668354305601579EC
:1015F000012D02D01579022D16D185684F000326E2
:10160000BE40B543856055794E00B5408668354388
:101610008560456801268E40B543456045689679EA
:101620008E40B6B235434560C5684F000326BE40C4
:10163000B543C560D5794E00B540C6683543C56031
:10164000491C1029BFD3F0BD4FF6FF710160002186
:10165000017141718171C171704708B54FF48032D9
:101660000092009A0A430092009AC261C161009AF6
:10167000C261C2690092C269009208BD02460020A0
:1016800013690B400BB1012000E0002070470146B8
:10169000086980B270470246002053690B400BB1C5
:1016A000012000E0002070470146486980B2704781
:1016B00001837047418370470AB1018300E0418391
:1016C00070474161704742694A4042617047F0B5D6
:1016D000002300244D07ED0E02FA05F3CE1000F1B1
:1016E000200555F826504E07F70E0F26BE40B5438D
:1016F000CF1000F1200646F82750CE1000F120054B
:1017000055F8265045EA0304CE1000F1200545F8AF
:101710002640F0BD000002400004024000080240E4
:10172000000C024000100240001402400018024069
:10173000001C024000200240002402400028024019
:10174000F948006840F00100F74908600020F649B8
:1017500008310860F4480068F4490840F24908601C
:10176000F348091D0860F348EF4984310860F048E8
:101770001038091D0860EC48006820F48020EA4910
:1017800008600020E8490C310860E7498C310860A6
:1017900070470021E44A921C11701146087070478E
:1017A00010B501460022002300204A11012A02D16F
:1017B000DD4C236808E0022A03D1DB4C7034236837
:1017C00002E0D94C7434236801F01F0201249440D4
:1017D0001C400CB1012000E0002010BD38B50020F5
:1017E00000900024002500BF3120FFF7D9FF0546F7
:1017F0000098401C00900098B0F5A04F01D0002D3B
:10180000F2D03120FFF7CCFF08B1012400E0002422
:10181000204638BD01460020C34A106820F0F80079
:1018200040EAC10010607047C3490860704700215A
:10183000BD4A703211701170012802D004280AD1FB
:1018400004E00121B84A7032117005E00521B64A62
:101850007032117000E000BF00BF7047B7490860E8
:10186000704770B5049C41EA82150126C6EB530609
:1018700045EA0645054345EA0465AB4E361D35602D
:1018800070BDAD4908667047820142EA0172A64BFD
:1018900084331A607047A8498866704710B5830181
:1018A00043EA016343EA02739F4C8834236010BD0E
:1018B000A14908677047A049C864704702460020E4
:1018C000994B0833186820F0EC6042EA0103184392
:1018D000954B08331860704702460020924B08333E
:1018E000186820F0784042EA010318438E4B083311
:1018F00018607047014600208B4A0832106820F0BB
:10190000030008431060704787480830006800F003
:101910000C00704701460020834A0832106820F00E
:10192000F000084310607047014600207E4A0832EC
:10193000106820F4E0500843106070470146002012
:10194000794A0832106820F4604040EAC100106013
:101950007047F0B500210022002402250026022352
:10196000714F08373F6807F00C0121B1042905D0F9
:10197000082937D105E0724F076036E0714F0760E4
:1019800033E0694F3F1D3F68C7F38056664F3F1DE8
:101990003F6807F03F036EB16A4FB7FBF3F7DFF81C
:1019A00088C10CF1040CDCF800C0CCF3881C07FBE8
:1019B0000CF40CE0624FB7FBF3F7DFF86CC10CF1ED
:1019C000040CDCF800C0CCF3881C07FB0CF4564F69
:1019D0003F1D3F68C7F301477F1C7D00B4FBF5F74F
:1019E000076002E0564F076000BF00BF4E4F083748
:1019F0003F6807F0F0010909534F7A5C0768D74048
:101A00004760494F08373F6807F4E051890A4E4F55
:101A10007A5C4768D7408760434F08373F6807F4D0
:101A20006041490B484F7A5C4768D740C760F0BDBA
:101A3000002100F44072B2F5407F0AD13A4A0832E0
:101A4000116821F4F811414A02401143364A083224
:101A50001160354A70321268C0F30B031A43324BDF
:101A600070331A607047354944390860704733490C
:101A700040390860704736490860704701460020C9
:101A8000294A8C32106820F01F004A1E1043264A53
:101A90008C321060704701460020234A8C32106857
:101AA00020F4F8504A1E40EA02201F4A8C3210608F
:101AB0007047014600201C4A8C32106820F4401008
:101AC00008431060704701460020174A8C321068A6
:101AD00020F4400008431060704701460020124A7D
:101AE0008C32106820F44030084310607047194968
:101AF0000860704739B10C4A3032126802430A4B11
:101B000030331A6006E0084A303212688243064BCE
:101B100030331A607047F9B1034A34321268024315
:101B2000014B34331A601CE000380240FFFFF6EA34
:101B3000103000240030002000004742800E474251
:101B40000024F40000127A003E000020FFFCFF0F8A
:101B50005C014742E01147428F4A126882438E4B34
:101B60001A60704739B18C4A121D126802438A4BC1
:101B70001B1D1A6006E0884A121D12688243864BBC
:101B80001B1D1A60704739B1834A0C321268024338
:101B9000814B0C331A6006E07F4A0C321268824394
:101BA0007D4B0C331A60704739B17B4A1032126892
:101BB0000243794B10331A6006E0774A10321268FC
:101BC0008243754B10331A60704739B1724A243A18
:101BD00012680243704B243B1A6006E06E4A243AB6
:101BE000126882436C4B243B1A60704739B16A4AD1
:101BF000203A12680243684B203B1A6006E0664AAE
:101C0000203A12688243644B203B1A60704739B116
:101C1000614A1C3A126802435F4B1C3B1A6006E0A3
:101C20005D4A1C3A126882435B4B1C3B1A6070474A
:101C300039B1594A143A12680243574B143B1A609F
:101C400006E0554A143A12688243534B143B1A601B
:101C5000704739B1504A103A126802434E4B103B5C
:101C60001A6006E04C4A103A126882434A4B103B15
:101C70001A60704739B1484A1C3212680243464B19
:101C80001C331A6006E0444A1C3212688243424BFD
:101C90001C331A60704739B13F4A20321268024340
:101CA0003D4B20331A6006E03B4A203212688243E3
:101CB000394B20331A60704739B1374A24321268E1
:101CC0000243354B24331A6006E0334A243212684B
:101CD0008243314B24331A60704739B12E4A2C327B
:101CE000126802432C4B2C331A6006E02A4A2C322D
:101CF00012688243284B2C331A60704739B1264A48
:101D0000303212680243244B30331A6006E0224A14
:101D1000303212688243204B30331A6070470128FA
:101D200008D11D493C31096841F008011A4A3C328A
:101D3000116007E018493C31096821F00801164A92
:101D40003C321160704739B1134A273A1278024386
:101D5000114B273B1A7006E00F4A273A127882434C
:101D60000D4B273B1A7070470B484030006840F01D
:101D70008070094940310860704701460020064ADA
:101D8000283A12680A400AB1012000E0002070479A
:101D900001492639087070473438024010B50446AE
:101DA000FA48844208D101211020FFF752FF002198
:101DB0001020FFF74EFF57E0F548844209D101217A
:101DC0004804FFF735FF00214FF40030FFF730FFE4
:101DD0004AE0F048844209D101218804FFF728FF36
:101DE00000214FF48020FFF723FF3DE0EA488442C2
:101DF00009D10121C804FFF71BFF00214FF4002087
:101E0000FFF716FF30E0E548844209D101210805BB
:101E1000FFF70EFF00214FF48010FFF709FF23E0CA
:101E2000DF48844208D101212020FFF712FF002162
:101E30002020FFF70EFF17E0DA48844209D1012184
:101E40008807FFF7F5FE00214FF08040FFF7F0FE16
:101E50000AE0D548844207D101214005FFF7E8FE9A
:101E600000216005FFF7E4FE10BD2DE9FF470546A0
:101E70000E460024A14600BFA046B08900B100BFB5
:101E80002C8A24F44054F08804432C82AC8941F21B
:101E90000C608443B0883189084371890843044346
:101EA000AC81AC8A24F44074B0890443AC826846A7
:101EB000FFF74FFDB548854202D0B948854202D1AF
:101EC000DDF80C9001E0DDF80890A88900F40040EE
:101ED00040B109EBC90000EB091031684900B0FBC3
:101EE000F1F707E009EBC90000EB09103168890040
:101EF000B0FBF1F76420B7FBF0F004012009642186
:101F000001FB1078A88900F4004040B1322000EBBA
:101F1000C800B0FBF1F000F00700044308E03220F5
:101F200000EB08106421B0FBF1F000F00F00044357
:101F30002C81BDE8FF874FF416510160002181809C
:101F4000C18001810C21418100218181704710B540
:101F500002460020108A20F470600B884C882343CE
:101F60008C882343CC8823431843108210BD002162
:101F7000018041808180C180704721B1828942F413
:101F80000052828104E082894DF6FF731A408281FB
:101F90007047028B02F47F420283028B0A43028362
:101FA000704721B1828942F40042828103E0828934
:101FB000C2F30E028281704721B1828A42F400622C
:101FC000828204E0828A4FF2FF731A408282704755
:101FD000C1F308028280704701468888C0F3080078
:101FE0007047028A4FF6F0731A400282028A0A434F
:101FF0000282704721B1828942F00202828104E0AC
:1020000082894FF6FD731A408281704782894FF2B0
:10201000FF731A40828182890A4382817047028A53
:102020004FF6DF731A400282028A0A430282704727
:1020300021B1028A42F48042028204E0028A4BF615
:10204000FF731A4002827047818941F0010181814A
:10205000704721B1828A42F00802828204E0828ABB
:102060004FF6F7731A4082827047028BD2B2028316
:10207000028B42EA01220283704721B1828A42F038
:102080002002828204E0828A4FF6DF731A40828245
:10209000704721B1828A42F01002828204E0828A73
:1020A0004FF6EF731A4082827047828A4FF6FB73B5
:1020B0001A408282828A0A438282704721B1828AD0
:1020C00042F00202828204E0828A4FF6FD731A40D7
:1020D000828270471AB1838A0B43838202E0838A2B
:1020E0008B4383827047F0B5034600240026002509
:1020F000002040F66A17B94200D100BF1846C1F36C
:10210000421401F01F06012707FA06F5012C01D140
:102110000C3004E0022C01D1103000E014301AB170
:1021200007682F43076002E00768AF430760F0BD10
:1021300002460020B1F5007F00D100BF13880B409C
:102140000BB1012000E00020704701F40072B2F5ED
:10215000007F00D100BFCA430280704770B50246BD
:10216000002400230025002040F66A16B14200D169
:1021700000BFC1F3421501F01F03012606FA03F365
:10218000012D13D19689334017E000000010014063
:102190000044004000480040004C00400050004017
:1021A0000014014000780040007C0040022D02D164
:1021B000168A334001E0968A33400C12012606FA53
:1021C00004F41688344013B10CB1012000E0002063
:1021D00070BD10B50022002340F66A14A14200D160
:1021E00000BF0A1201249440A3B2DC43048010BD56
:1021F0000146002001220A7100224A7101228A71DF
:1022000041F2FE120A6070470146002001220A7165
:1022100002224A7107228A714FF4B4620A60704741
:10222000F8B506460C46154600276A46C2213046D8
:10223000FEF736FB0746012020709DF800000009DC
:1022400028703846F8BD70B504460D46002629466C
:10225000204603F006FE0646304670BDF8B505463A
:102260000C4600266A4614212846FEF719FB06464E
:102270009DF80000C0F3C30020703046F8BD70B573
:1022800004460D4600262946204603F036FE064643
:10229000304670BD70B504460D46002629462046DE
:1022A00003F08EFE0646304670BD70B504460D46FE
:1022B00000262946204603F0B4FE0646304670BD8F
:1022C00070B504460D4600262946204603F03EFF21
:1022D0000646304670BD0246002092F832310B703F
:1022E00070472DE9F84380468946154600260024AC
:1022F00000276A464946404602F0D5FD0646B6B973
:102300004FF47A710098B0FBF1F404EB4400C0EB99
:10231000C4100099A1EBC007C7EB074000F5FA70A5
:102320004FF47A71B0FBF1F000EB044028603046C6
:10233000BDE8F8832DE9F04104460D461646002716
:1023400032462946204603F05BF807463846BDE88A
:10235000F08170B504460D4600262946204603F05C
:1023600072F80646304670BD2DE9F84307460D4623
:10237000904600260020009000246A46012138463D
:10238000FEF78EFA06469DF80040002E36D1B8F1D1
:10239000010F19D1052D13D2DFE805F00306090C52
:1023A0000F0044F010040EE044F028040BE044F069
:1023B000040408E044F0400405E044F0800402E036
:1023C0006FF0030600BF19E0052D13D2DFE805F01A
:1023D0000306090C0F0004F0EF040EE004F0D7042C
:1023E0000BE004F0FB0408E004F0BF0405E004F097
:1023F0007F0402E06FF0030600BF00BF9DF80000FD
:10240000844210D02EB9224601213846FEF7EEF95B
:1024100006460EB987F830412EB9D7F814904946D0
:102420003846FFF796FF3046BDE8F88370B506469C
:102430000C460025224609213046FEF731FA0546B2
:102440001DB9207800F001002070284670BD70B5DD
:1024500004460D4600262946204603F088F8064625
:10246000304670BDF8B506460C4600256A46012187
:102470003046FEF715FA05466DB99DF8000086F85E
:1024800030019DF8000000F0800010B101202070A4
:1024900001E00020207015B9217886F84C102846FC
:1024A000F8BD30B503460020062903DB001F0025D8
:1024B000157003E003F128056C5C147030BD2DE944
:1024C000F84305460E4617464FF00008C146062E53
:1024D0002FD2DFE806F00307161A1E1F6C6B4FF0B1
:1024E000000929E06A4644212846FEF7F7F98046AC
:1024F000B8F1000F02D1BDF8000044024FF001090D
:102500001AE0EC6B4FF0000916E02C6C4FF000095C
:1025100012E000BF6A4664212846FEF7DFF98046D4
:10252000B8F1000F02D1BDF8000044024FF00009DD
:1025300002E06FF0030800BF00BFB8F1000F16D132
:10254000B9F1010F12D144B905F1340050F8264019
:102550003C6000210C38815509E03C6005F13400F5
:1025600040F8264001210C38815500E03C6040468F
:10257000BDE8F88370B504460D460026294620467E
:1025800001F02BFC0646304670BDF8B504460E46F9
:1025900000276A4620212046FEF7A0F9074677B9B2
:1025A000BDF8000020B9256A35600021217706E0DA
:1025B000BDF80000C500356025620121217738464D
:1025C000F8BD7CB506460C46002501AAF821304628
:1025D000FEF784F905462DB96A4604213046FEF718
:1025E0009CF9054655B9BDF8040028B1BDF80410A2
:1025F0000098B0FBF1F020602168B16128467CBDF5
:1026000002460020137C0B7070472DE9F04107460D
:102610000D46002429463846FFF7F2FF04462CB940
:1026200005F108013846FFF7CCFF04460CB900203D
:1026300028732CB905F110013846FFF7A6FF0446B0
:102640002CB905F114013846FFF794FF0446E4B9AC
:10265000002617E04CB905F1240000EB8602B1B268
:102660003846FFF72CFF044300E00DE044B905F1C4
:1026700018008219B1B23846FFF713FF044300E097
:1026800002E0761C062EE5DB00BF2CB905F13C010B
:102690003846FFF7E7FE044624B9291D3846FFF700
:1026A000D6FE04462046BDE8F081F8B506460F4642
:1026B0000024002500BF01220B213046FEF796F8CA
:1026C000044600220B213046FEF790F804436A4688
:1026D00013213046FEF7E4F80443681CC5B29DF8A8
:1026E000000000F0070018B1032D01DA002CE2D041
:1026F000032D01DB6FF00B042046F8BD2DE9F047F8
:102700008046894617461E46DDF820A00024B9F110
:10271000000F02D06FF00904A0E0142F0CD1BAF121
:10272000000F01D1102500E001252A4684214046F2
:10273000FEF75CF8044691E0152F5AD10122FF21E3
:102740004046FEF753F80443002211464046FEF788
:102750004DF804430022FF214046FEF747F80443AA
:10276000012280214046FEF741F8044302228521E0
:102770004046FEF73BF804430422FF214046FEF7A3
:1027800035F804430022CD214046FEF72FF80443DC
:102790001122CC214046FEF729F804430722FF21ED
:1027A0004046FEF723F804430022BE214046FEF7D0
:1027B0001DF804430622FF214046FEF717F80443A4
:1027C0000922CC214046FEF711F804430022FF21E4
:1027D0004046FEF70BF804430122FF214046FEF776
:1027E00005F80443002211464046FDF7FFFF04436D
:1027F00034E0A4B9052E0ED2DFE806F00305070980
:102800000B0000250AE0012508E0022506E003256B
:1028100004E0042502E06FF00A0400BF00BF2CB9F9
:102820002A460A214046FDF7E1FF044664B9BAF1A1
:10283000000F01D1002500E010252B46EF22842156
:102840004046FEF791F8044614B9DA2000F8086013
:1028500024B900214046FFF728FF04462046BDE882
:10286000F0872DE9F04397B005460024402107A8E2
:1028700003F0BBFF002006900590814600270490DE
:10288000039000260121284602F00DF8044695F831
:10289000137195F81461012E05DC01D1202F02D8A7
:1028A00046B90C2F06D904AA03A9284601F054FD05
:1028B000044605E032463946284601F096FE0446B5
:1028C000DFF8B4874CB995F85091B9F1000F02D1F7
:1028D000D5F84C8101E0DFF8A08724B941462846AD
:1028E00002F0BCFE044644B900200423024601461F
:1028F00000902846FFF702FF04468CB90122FF2111
:102900002846FDF773FF044606AA84212846FDF7F2
:10291000E5FF04430022FF212846FDF767FF04433B
:1029200024B9BDF818000001C5F8D40024B907A9DE
:102930002846FFF76AFE04464CB905A92846FFF76A
:1029400075FD04461CB99DF8140085F831012CB9B9
:10295000402207A905F1100003F015FF54B905AA9C
:1029600001212846FDF79CFF04461CB99DF8140080
:1029700085F830012CB9002211462846FFF7F4FCF7
:1029800004462CB9002202212846FFF7EDFC04463C
:1029900014B9032085F832012CB902AA0021284677
:1029A000FFF7C8FC04461CB99DF80810E820415503
:1029B0002CB902AA01212846FFF7BCFC04461CB929
:1029C0009DF80810E02041552CB901AA03212846A2
:1029D000FFF787FC044614B9E420019941512CB952
:1029E00001AA04212846FFF77CFC044614B9DC2028
:1029F00001994151204617B0BDE8F08370B50446F7
:102A00000D46002625B1022D02D06FF007061DE00D
:102A10006DB9002280212046FDF7E8FE0646AEB9DA
:102A2000022084F83201002084F833010EE00022F5
:102A300080212046FDF7DAFE06461EB92046FFF744
:102A400010FF064616B9022084F83301304670BDE7
:102A5000F8B504460E4600256A4680212046FDF75B
:102A60001FFF054655B99DF80000012803D102203B
:102A700084F8330102E0002084F833012846F8BDD1
:102A800070B504460D4600262946204601F080F91F
:102A90000646304670BD70B505460C460026002C33
:102AA00002DBB4F57A7F02DD6FF003060AE0A5F8D9
:102AB0005241B4F57A7F05D0002220212846FDF747
:102AC000ABFE0646304670BD02460020B2F85231D9
:102AD0000B80704702466FF06200704702466FF04D
:102AE0006200704770B588B004460D4600261C226F
:102AF00004F1500101A803F046FE2A4601A9204630
:102B000002F03EFE0646304608B070BD2DE9F041A9
:102B100005460C460026274604EBD770C0F3470253
:102B20008A212846FDF762FE06463046BDE8F08160
:102B30002DE9F04105460E461446002705F1280010
:102B400010F80680B8F1000F03D10C3040F8264091
:102B500026E0062E1BD2DFE806F003050D0F11124A
:102B60006C6317E0C4F34F2244212846FDF754FE5E
:102B700007460FE0EC630DE02C640BE000BFC4F3EC
:102B80004F2264212846FDF747FE074602E06FF01A
:102B9000030700BF00BF1FB905F1340040F826400D
:102BA0003846BDE8F0812DE9F05F04460D46164633
:102BB0004FF00009CB460027BA46062D02DB6FF026
:102BC000030941E02EB94FF0000B00274FF0010A36
:102BD00006E004F1340050F825B04FF0000A012758
:102BE000062D2DD2DFE805F003060E111420282053
:102BF000075528E0CBF34F2244212046FDF70CFE79
:102C0000814620E084F82A701DE084F82B701AE0D9
:102C10004FEA4A604FEA10684346FE226021204690
:102C2000FDF7A2FE81460EE04FEA0A704FEA1068F7
:102C30004346EF2260212046FDF796FE814602E0E2
:102C40006FF0030900BF00BFB9F1000F09D126B929
:102C5000002104F12800415503E0012104F128007E
:102C600041554846BDE8F09F70B592B00546002436
:102C70002CB9002288212846FDF7B8FD0446002122
:102C8000F02041554FF47A70A5F852014FF4C87006
:102C9000A5F85401F948C5F85801F948C5F8D40019
:102CA000296202A92846FFF7B0FC044654B9002067
:102CB0008DF808008DF80900402202A905F11000E6
:102CC00003F061FD642005F59A7528804FF461706A
:102CD00068804FF4FA70A8804FF4206028810120AA
:102CE0002877A5F59A75012280212846FDF77EFDFB
:102CF00004430122FF212846FDF778FD044300220A
:102D000011462846FDF772FD044301AA9121284689
:102D1000FDF7C6FD04439DF8040085F83A01012241
:102D200000212846FDF762FD04430022FF212846CA
:102D3000FDF75CFD0443002280212846FDF756FD87
:102D40000443002609E034B9B1B201222846FFF756
:102D50002AFF044300E002E0761C062EF3DB00BFEE
:102D60002CB9002202212846FFF71DFF04462CB98A
:102D7000002203212846FFF716FF04462CB9002243
:102D800004212846FFF70FFF04462CB90022052135
:102D90002846FFF708FF044634B94FF4901200218B
:102DA0002846FFF7C5FE044634B94FF4804201219E
:102DB0002846FFF7BDFE044634B94FF40C12022139
:102DC0002846FFF7B5FE04462CB900220321284609
:102DD000FFF7AEFE04465CB9FF2085F83001FF2204
:102DE00001212846FDF702FD0446012085F8320145
:102DF00014B9002185F81511204612B070BD10B528
:102E000003460020012A03D1012483F8504109E040
:102E10000C782CB1C3F84C11002483F8504101E028
:102E20006FF0030010BD10B503460020D3F84C41ED
:102E30000C6093F85041147010BD01466FF06200B1
:102E4000704738B5054600240022BF212846FDF70B
:102E5000CDFC044654B900BF6A46C0212846FDF7A0
:102E60001FFD04469DF800000028F5D10122BF2176
:102E70002846FDF7BBFC044654B900BF6A46C02192
:102E80002846FDF70DFD04469DF800000028F5D00A
:102E900014B9002085F83201204638BDF8B5044643
:102EA0000E4600276A4601212046FDF7F9FC074639
:102EB00036B99DF8000000F07F000090002505E085
:102EC0009DF8000040F08000009001259DF8002052
:102ED00001212046FDF78AFC07462FB99DF8000026
:102EE00084F8300184F84C503846F8BD2DE9F0479D
:102EF00004460D46002794F81C80B4F85291B8F1AE
:102F0000000F01D125620EE0B9F57A7F02D1C5F339
:102F1000CF0600E00026324620212046FDF77CFC4B
:102F2000074607B925623846BDE8F087F8B5074679
:102F30000C4600256A46F8213846FDF7CFFC0546C9
:102F400075B9BDF8000020B1BDF8000004FB00F623
:102F500000E02646324604213846FDF777FC054658
:102F600005B9BC612846F8BD0246002003290BD0F4
:102F700003DC39B101290BD105E0142905D015294D
:102F800006D103E000BF00BF00BF00BF117402E024
:102F90006FF0070000BF00BF70472DE9F041074602
:102FA0000D46002429783846FFF7DEFF044624B991
:102FB0003846A968FFF7BAFF044624B9384629699C
:102FC000FFF794FF044624B938466969FFF758FDB6
:102FD0000446002617E044B905F11800825DB1B23D
:102FE0003846FFF7E0FD044300E00EE04CB905F180
:102FF000240050F82620B1B23846FFF799FD04436B
:1030000000E002E0761C062EE5DB00BF2CB995F847
:103010003C103846FFF742FF044624B93846696839
:10302000FFF797F904462046BDE8F08170B50546E4
:103030000C460026224609212846FDF7D7FB064606
:103040000EB985F83141304670BD02466FF062001E
:10305000704702466FF0620070472DE9F041044668
:103060000D461646002732462946204602F049F80A
:1030700007463846BDE8F0814E000020856B010010
:10308000A470090030B50446002000251D700529F4
:1030900017D2DFE801F003070B0F1300C2F300158E
:1030A0001D7011E0C2F3C0051D700DE0C2F3800574
:1030B0001D7009E0C2F380151D7005E0D5091D7073
:1030C00002E06FF0030000BF00BF30BDF8B5064658
:1030D0000F4614460025002000906A460121304624
:1030E000FDF7DEFB05463DB923469DF80020394635
:1030F0003046FFF7C7FF05462846F8BDF8B5064637
:103100000C460025002000906A4601213046FDF75C
:10311000C7FB05463DB923469DF8002000213046F7
:10312000FFF7B0FF05463DB9A31C9DF80020012123
:103130003046FFF7A7FF05463DB9631C9DF8002008
:1031400002213046FFF79EFF05463DB9E31C9DF87E
:10315000002003213046FFF795FF05463DB9231DAA
:103160009DF8002004213046FFF78CFF05462846D5
:10317000F8BD0246002005230B70704770B5044669
:103180000D4600262946204603F0F2F90646304651
:1031900070BD2DE9F84F05468946164600BF002749
:1031A00006EB4600C0EBC6104FF4004101EBC00037
:1031B0004FEA104A6A464946284601F074FE044622
:1031C0002CB952464946284601F0FEFE0446A4B9F1
:1031D000D5F8148041462846FFF7BBF8044664B191
:1031E00049462846009A01F0EFFE074627B94146B6
:1031F0002846FFF7AEF807463C462046BDE8F88F64
:103200002DE9F04104460D460027B4F8528115B16E
:10321000B8F57A7F01D0002600E0266AC6F3CF0217
:1032200020212046FDF7F8FA07462FB915B90021ED
:10323000217701E0012121773846BDE8F08110B502
:1032400002460020137F0B7010BD2DE9F0410446AB
:103250000D461646002732462946204601F062FAFE
:1032600007463846BDE8F0812DE9F04104460D4699
:103270001646002732462946204601F06AFA0746DC
:103280003846BDE8F0810146002006220A807047DA
:103290002DE9F04104460D461646002732462946E0
:1032A000204603F08FF907463846BDE8F08130B577
:1032B00003460020062901DB001F03E003F12E0571
:1032C0006C5C147030BDF0B587B004460E461546F0
:1032D0000027062E01DB3F1F36E0062E30D2DFE846
:1032E00006F0030710141D26D4F8400128602AE0D8
:1032F0001C2204F15001684603F045FA0398286047
:1033000021E0D4F8480128601DE01C2204F150019E
:10331000684603F038FA0398286014E01C2204F190
:103320005001684603F02FFA039828600BE01C2236
:1033300004F15001684603F026FA0398286002E081
:103340006FF0030700BF00BF384607B0F0BD2DE99E
:10335000F04104460D4616460027B84605B176B939
:103360000421204601F09FFA4FF4907050F8048039
:103370004FF4C870A4F85401C4F8588103E0A4F8CD
:103380005451C4F858613846BDE8F08110B5034681
:103390000020B3F854410C80D3F85841146010BD9C
:1033A0002DE9F8430746884614461D4600266A461E
:1033B0000E213846FDF792FA0646BDF800000005DA
:1033C000C008206056B96A460C213846FDF786FAD7
:1033D0000646BDF800000005C00828603046BDE87C
:1033E000F8832DE9FC4106460F460024DA20855D6E
:1033F000012D03D0022D01D0032D2ED16B4601AA41
:1034000001213046FFF7CCFF04460198B0F57F0F4D
:1034100003D80098B0F57F0F1FD9F4B92FB1F74941
:10342000304602F01BF9044617E00422FF21304623
:10343000FDF7DCF90443002270213046FDF7D6F990
:1034400004430022FF213046FDF7D0F90443002257
:1034500080213046FDF7CAF904432046BDE8FC81CF
:103460002DE9FC4106460024012701A93046FFF75B
:10347000C7F8012280213046FDF7B8F90446012241
:10348000FF213046FDF7B2F90446002211463046CE
:10349000FDF7ACF9044696F83A2191213046FDF744
:1034A000A5F90446012200213046FDF79FF90446A4
:1034B0000022FF213046FDF799F9044600228021C1
:1034C0003046FDF793F904469DF8040020B1012829
:1034D00021D0032841D12FE0012200213046FDF701
:1034E00085F904460097ACB9002500BF2DB16A46A6
:1034F00000213046FDF7D4F904466D1C9DF800000C
:103500003840B84202D10CB9C82DEFD3C82D01D331
:103510006FF0060424E024B901213046FFF761FF73
:103520000446022200213046FDF760F9044614B932
:10353000042086F8320113E024B901213046FFF758
:1035400050FF0446042200213046FDF74FF904469F
:1035500014B9042086F8320102E06FF0070400BFBE
:1035600000BF2046BDE8FC8138B505460024694609
:103570002846FFF745F8044634B99DF8000018B90D
:103580002846FFF76DFF04461CB9284601F00BF9E9
:1035900004462CB99DF8000010B9032085F83201CB
:1035A000204638BD02466FF0620070472DE9F041B9
:1035B00004460D461646002701233246294620467A
:1035C00000F0A4FE07463846BDE8F08130B5044659
:1035D0006FF0620030BD2DE9F04104460D461646FD
:1035E000002732462946204600F0CCFA07463846E6
:1035F000BDE8F0812DE9F04104460D46164600274E
:1036000032462946204600F051FB07463846BDE8C1
:10361000F08170B505460024002211462846FDF7CA
:10362000E5F804460122FF212846FDF7DFF80446AD
:10363000002211462846FDF7D9F8044600229121C0
:103640002846FDF7D3F80446012200212846FDF75D
:10365000CDF804460022FF212846FDF7C7F80446AE
:1036600014B9032085F8320124B900212846FFF758
:10367000B8FE0446204670BDF8B505460C46002647
:103680006A4613212846FDF70BF906469DF800000F
:1036900000F0070020609DF8000000F0180008B15D
:1036A0006FF005063046F8BD2DE9FC4105460C4695
:1036B0000026DA20475D042F0DD169462846FFF722
:1036C000DBFF06460098042802D10120207013E099
:1036D0000020207010E001AA14212846FDF7E0F830
:1036E00006464EB99DF8040000F0010010B101201B
:1036F000207001E0002020703046BDE8FC810246C9
:103700006FF0620070472DE9F04F93B005460C460C
:103710004FF000080C230AAA14212846FDF76BF984
:103720008046B8F1000F6BD10020A07520609DF895
:1037300033009DF8321000EB012087B2002060605A
:103740009DF82F009DF82E1000EB01200004C60903
:10375000E6609DF831009DF8301000EB012080B24A
:103760000F900F98400220619DF82B009DF82A10C1
:1037700000EB01201FFA80F9A4F814909DF82800AE
:103780001290B5F852010D9095F831B10D98B0F541
:103790007A7F2AD00D98784300F5FA704FF47A7149
:1037A00090FBF1F087B2288C80B20E90287F1090A9
:1037B0001098D0B10E9800FB09F0A6EB202040B97C
:1037C000BBF1000F02D042F2B82A0DE048F6E02A21
:1037D0000AE007FB06F10E9800FB09F0A6EB20209B
:1037E000B1FBF0F01FFA80FA5746BBF1000F08D08A
:1037F000B8102081B807000EE07505E041010020F7
:1038000013E027810020E07511A84B463246CDE930
:1038100000402846129902F0DCF940EA0808B8F1A5
:10382000000F02D19DF844002076B8F1000F20D19E
:103830001C2205F1500103A802F0A5FF2089ADF874
:103840001400E07D8DF823006089ADF816006068F3
:103850000490E068069020690790A08AADF82000E7
:10386000207E8DF824001C2203A905F1500002F0EF
:103870008AFF404613B0BDE8F08F02460020D2F820
:1038800048310B60704702466FF06200704770B5B8
:1038900005460E46002400212846FFF765FB044636
:1038A0001CB92846FFF760FE044624B93146284675
:1038B000FFF729FF044624B900212846FEF7F5FE4C
:1038C0000446204670BD02460020012900D0001F9A
:1038D00070470246002001230B707047024600200B
:1038E00001230B7070472DE9F84F82460E461746AC
:1038F0009846DDF82890002539465046FEF780FEB0
:1039000005464DB916B16FF0090505E06A460A2172
:103910005046FCF7C5FF0546C5B99DF8000000F00C
:10392000070005280ED2DFE800F0030507090B00A9
:1039300000240AE0012408E0022406E0032404E055
:10394000042402E06FF00A0500BF00BF2DB96A46EB
:1039500084215046FCF7A4FF05465DB99DF80000A0
:1039600000F0100018B9002089F8000002E00120E2
:1039700089F8000025B988F80040DA2000F80A40EC
:103980002846BDE8F88F2DE9F047074689461446DA
:103990001D460026C4F34B4842460E213846FCF72C
:1039A0003BFF06463EB9C5F34B4842460C2138461C
:1039B000FCF732FF06463046BDE8F087F8B505460D
:1039C0000E460024002000900122FF212846FCF72B
:1039D0000DFF04462CB96A4604212846FCF760FF17
:1039E00004462CB90022FF212846FCF7FFFE0446BE
:1039F0009DF8000030609DF8000050BB012280213E
:103A00002846FCF7F3FE04460122FF212846FCF776
:103A1000EDFE0446002211462846FCF7E7FE044668
:103A200095F83A2191212846FCF7E0FE0446012250
:103A300000212846FCF7DAFE04460022FF21284632
:103A4000FCF7D4FE0446002280212846FCF7CEFE77
:103A500004462046F8BD02466FF06200704770B51C
:103A600006460D4600240122FF213046FCF7BEFE2B
:103A700004462A4640213046FCF7CEFE044300228D
:103A8000FF213046FCF7B2FE0443204670BD70B5FE
:103A900006460D4600240122FF213046FCF7A6FE13
:103AA00004462A4640213046FCF718FF0443002212
:103AB000FF213046FCF79AFE0443204670BD2DE9F5
:103AC000F04106460D460024EFB20122FF213046A8
:103AD000FCF78CFE04463A4642213046FCF786FE4F
:103AE00004430022FF213046FCF780FE04432046B9
:103AF000BDE8F081F8B506460D4600240122FF21FD
:103B00003046FCF773FE04466A4642213046FCF715
:103B1000C7FE04430022FF213046FCF767FE044342
:103B20009DF8000028802046F8BD2DE9F0410446AC
:103B30000D461646002732462946204600F055FD20
:103B400007463846BDE8F0812DE9F04104460D46B0
:103B50001646002732462946204600F0A7FD0746B4
:103B60003846BDE8F0812DE9F04104460D46164681
:103B7000002732462946204600F0EEFB074638462D
:103B8000BDE8F0812DE9F74F8EB00D460024A34625
:103B900000200D900C9000260B9005B9041F24B94D
:103BA00000210E98FFF72CFB04462CB900220321BC
:103BB0000E98FEF7F8FF0446002C2FD1A3460020F4
:103BC0000D900C9000260B9021E004A90E98FFF7B1
:103BD0005EFE044604B11DE09DF8280098B9BDF8CA
:103BE000180058441FFA80FB07990C9808440C9061
:103BF000BDF82400C11700EB11610A120D991144A0
:103C000089B20D91761C0B98401CC0B20B900B989A
:103C10003228DADB00BF0EB96FF00504F4BB0C9854
:103C2000B0FBF6F003904FEA0B40B0FBF6F80D98AE
:103C30000004B0FBF6F00290029800F500404FEA55
:103C4000104905F500404FEA104AB9F1000F04D0C1
:103C5000BAF1000F01D0A84501D3002712E005F505
:103C600000404FEA104A0398B0FBF9F00190B8FB0E
:103C7000FAF0C0F58030019948430190019800F5B1
:103C80000040070C1098076024B901210E98FFF737
:103C9000B7FA044614B939460E9800E002E0FFF77F
:103CA00025F90446204611B0BDE8F08F2DE9F74F05
:103CB0008AB00E4615460024A04600270020019039
:103CC00006B9041F24B900210A98FEF7D9FE04465C
:103CD0002CB902AA00210A98FFF7F8F904462CB97A
:103CE000002211460A98FEF73FFB04462CB9002239
:103CF00003210A98FEF757FF0446FCB94FF000086D
:103D000000270020019012E003A90A98FFF7BFFDE9
:103D1000044604B10EE09DF8240028B9BDF8140053
:103D200040441FFA80F87F1C0198401C01900198C4
:103D30003228E9DB00BF0FB96FF00504D4B94FEAB0
:103D40000840B0FBF7F909F500404FEA104A06F5C4
:103D500000404FEA104BABEB0A004FF47A71484336
:103D600028603CB929680A98416229680A98FEF7D8
:103D700087FE044644B99DF8080028B101220021BD
:103D80000A98FEF7F1FA044620460DB0BDE8F08F20
:103D90002DE9F04780460C464FF00009FD4EFE4FDE
:103DA0004FF4805AB44201DD344602E0BC4200DAEE
:103DB0003C46002C03DBFA2094FBF0F504E0FA20EB
:103DC00094FBF0F000EB0A05AAB228214046FCF76C
:103DD00023FD81464846BDE8F0872DE9F8430646B5
:103DE0000C46002540F2FF774FF480586A462821A0
:103DF0003046FCF773FD0546BDB9BDF80000C0F3C1
:103E00000B000090BDF80000B84208DDBDF80000CE
:103E1000A0EB0800FA2110FB01F0206005E0BDF8DE
:103E20000000FA2110FB01F020602846BDE8F8836D
:103E3000F8B5044600250721204600F034FD05466C
:103E400025B969462046FEF795FB05465DB9009801
:103E5000A060E0680099461831462046FEF710FE43
:103E6000054605B966622846F8BD2DE9F0470646C5
:103E70000F4608214FF000094FF0FF3AC3F800A0A9
:103E8000B2FBF1FCB2FBF1FA01FB1A28604619E023
:103E90000024355C604502D145FA08F544460DE042
:103EA00005F0010ABAF1000F06D04FF0010900FB3E
:103EB000014AC3F800A003E06D10641C8C42EFD3EC
:103EC00000BF401CB84202D2B9F1000FE0D0BDE8FB
:103ED000F087014601208A09B04B53F8223003B91C
:103EE00000207047F0B503460C4600200825B2FBC1
:103EF000F5F1B2FBF5F705FB1726A14202D36FF0EF
:103F0000310007E05F5C4FF0010C0CFA06FC47EA59
:103F10000C075F54F0BD2DE9F04F04468946154665
:103F2000DDF8248000200826002200218646B5FB0B
:103F3000F6F7B5FBF6FB06FB1B5A4F4501D36FF0B6
:103F400031004FF0000BC3F800B0002225E014F858
:103F500002C000211EE00CF0010BBBF1000F16D0D7
:103F6000D3F800B00BF1010BC3F800B0BEF1000FA5
:103F70000DD14FF0010B88F800B0022A05D20429B8
:103F800003D24FF0000B88F800B04FF0010E4FEA5B
:103F90006C0C491CB142DED9521CA7F1010B9345B0
:103FA000D5D214F807C000210BE00CF0010BBBF1D7
:103FB000000F05D0D3F800B00BF1010BC3F800B02F
:103FC000491C5145F1D9BDE8F08F70B505460C4646
:103FD00006232246B0212846FCF7ECFC0646304674
:103FE00070BD70B505460C4606232246B021284612
:103FF000FCF701FD0646304670BD2DE9FF4F85B048
:10400000884691461D46DDF850B0DDF848A00026F0
:10401000CDF80CB05F46002004901FE003AB3A4699
:1040200051464846FFF721FF0398401C10B96FF036
:10403000310617E0039A13998818FFF74AFF4045A5
:1040400002D06FF031060DE0039F3A4651462846F4
:10405000FFF748FF7F1C0498401C049015990498B2
:104060008842DBD300BF1698076026B92946059819
:10407000FFF7ABFF064696B901A90598FFF7B1FF18
:104080000646002408E0285D01A9095D884202D0A7
:104090006FF0310602E0641C5445F4D300BF304693
:1040A00009B0BDE8F08FF0B587B005460E46002494
:1040B000002795F830712CB9C02201212846FCF761
:1040C00095FB044624B969462846FFF7E0FB044601
:1040D0002CB90122FF212846FCF788FB04462CB9A5
:1040E0003246B6212846FCF7F9FB04462CB90022DB
:1040F000FF212846FCF77AFB044644B93A460121E1
:104100002846FCF773FB04460CB985F8307120464D
:1041100007B0F0BD2DE9F84F80460D4691469A460E
:10412000DDE90BB60D9F0024002000900122FF2145
:104130004046FCF75BFB0443002211464046FCF777
:1041400055FB04430022FF214046FCF74FFB04438C
:1041500075B12EB1CB2140460A9AFCF7A1FB04436E
:10416000AFB16A46EE214046FCF79AFB04430EE0ED
:104170002EB14A46CB214046FCF738FB044337B109
:1041800053468022EE214046FCF7EEFB0443012219
:10419000FF2105E018CC07000030F8FFF8020020EE
:1041A0004046FCF723FB0443012200214046FCF774
:1041B0001DFB04430022FF214046FCF717FB04438C
:1041C0009DF8000000F0EF008BF800002046BDE8ED
:1041D000F88F70B506460D46002434B945F001024B
:1041E00000213046FCF702FB04461CB9304600F0C3
:1041F000DAFA044624B900213046FEF756FA04469E
:104200002CB9002211463046FCF7F0FA044620464D
:1042100070BD2DE9F04F85B005460E4690461F460D
:104220000024A146A246A3460FB195F83091022280
:1042300001212846FCF7DAFA044624B90021284671
:10424000FFF7C7FF04468CB9B8F1010F0ED101206A
:10425000002104AA5B46CDE90026CDE902105246B2
:1042600001462846FFF756FF044601E00020307063
:104270004CB947B14A4601212846FCF7B7FA044633
:104280000CB985F83091204605B0BDE8F08F2DE9D6
:10429000F04F85B005460E4690461F460024A146C5
:1042A000A246A346002004900FB195F83091012258
:1042B00011462846FCF79AFA044624B940212846BC
:1042C000FFF787FF044684B9B8F1010F0DD1002034
:1042D000012104AA5B46CDE90062CDE902105246F5
:1042E0002846FFF717FF044601E0002030704CB964
:1042F00047B14A4601212846FCF778FA04460CB932
:1043000085F83091204605B0BDE8F08F2DE9F047E3
:104310000546894616461F460024A04695F830817A
:1043200000233A4649462846FFF7B1FF044634B910
:1043300000233A4631462846FFF76BFF044644B94E
:10434000424601212846FCF751FA04460CB985F88B
:1043500030812046BDE8F0872DE9F74F94B0044640
:1043600000254FF0B40B032011902C201090002654
:1043700000200F900E904FF42067804681464FF04A
:10438000060A0C900B900A900990089007900690EE
:10439000B4F83C7100BF06E0002104F5927000F80B
:1043A000091009F10109D145F6D30122FF21204668
:1043B000FCF71CFA05462DB900224F212046FCF7D8
:1043C00015FA05462DB92C224E212046FCF70EFA8F
:1043D00005462DB90022FF212046FCF707FA0546C5
:1043E0002DB95A46B6212046FCF700FA05462DB9EC
:1043F000002280212046FCF7F9F9054635B9002353
:1044000008AA09A92046FFF781FF05468DB90026B5
:104410000F96B0460FA91198CDE900ABCDE9026027
:104420000491414604F592739A1D2046FFF7E5FD7D
:104430000546002D44D10F9E0DA92046FFF733FEFF
:104440000546002D3AD1BDF83400B84236DDA94604
:1044500006E0002104F5927000F8091009F1010945
:10446000D145F6D300E0761C0BEB0600FFF731FDDB
:1044700010B910988642F6D34FF001080FA9119891
:10448000CDE900ABCDE902600491414604F5927399
:104490009A1D2046FFF7B1FD05468DB90F9E0DA967
:1044A0002046FFF700FE054655B9BDF83400B84276
:1044B00006DD012006901198079001E04FF00008FA
:1044C000002D7CD1BDF83400B84278DA08F0FF0046
:1044D000069011980790524604F5927112A802F0C6
:1044E00052F9BDF83410C81B002801DB014600E07A
:1044F00041420B9100200A905DE00EAB32465146DE
:1045000004F59570FFF7B1FC0E98401C10B96FF0E0
:10451000310553E00798401C07900E990BEB010002
:10452000FFF7D7FC404502D06FF0310546E00E9E04
:104530003246514604F59270FFF7D4FC054635B972
:10454000761C04F592712046FFF73FFD054605B144
:1045500034E00DA92046FFF7A6FD054605B12DE084
:10456000BDF83410C81B002801DB014600E04142C1
:104570000C91BDF83400B84215DDDDE90B1088421E
:104580000DD912A92046FFF720FD0546524612A973
:1045900004F5927002F0F7F80798401E079001208A
:1045A0000A9008E00BE00C980B90524604F59271CB
:1045B00012A802F0E8F80A9800289ED000BF85B93A
:1045C000159907980860169906980870012184F8D3
:1045D00015111598017884F813111698017884F84C
:1045E0001411284617B0BDE8F08F2DE9F04F87B0C1
:1045F000044689461646002500274FF0B40A4FF0BE
:10460000060B2C2006900122FF212046FCF7EEF835
:1046100005462DB900224F212046FCF7E7F8054654
:104620002DB92C224E212046FCF7E0F805462DB985
:104630000022FF212046FCF7D9F805462DB9524645
:10464000B6212046FCF7D2F805464FF0000806E0F8
:10465000002104F5927000F8081008F10108D8450F
:10466000F6D34EB100E07F1C0AEB0700FFF731FCE8
:1046700010B906988742F6D305A804F592739A1DDF
:104680003146CDE900BACDE9027904902046FFF722
:10469000B4FC054635B9012184F8151184F813914D
:1046A00084F81461284607B0BDE8F08F2DE9F04783
:1046B00086B004460D46164600274FF02C094FF0F1
:1046C000060A0020029094F81581B8F1010F06D176
:1046D00094F81301286094F8140130701EE004A9C6
:1046E0002046FFF77EFC0746C7B902A803AB4A463F
:1046F0005146009004A8FFF70EFC074677B90398CF
:1047000028609DF808003070012184F81511039885
:1047100084F813019DF8081084F81411384606B087
:10472000BDE8F087F0B587B006460C461546002771
:10473000012005AA06ABCDE90120009303902B468A
:10474000224600213046FFF7E5FC0746384607B011
:10475000F0BD2DE9FF4706460C4615460027B84632
:10476000B9460120CDE901504B464246014600942E
:1047700003903046FFF7CEFC0746384604B0BDE84C
:10478000F0870000F0B502460B4600205E080021CD
:1047900006E05F1A7C1E555C175D57541555491C81
:1047A000B142F6D3F0BDF8B50646002400200090D3
:1047B000002500BF69463046FEF776FF044604B187
:1047C0000EE09DF80000012800D109E06D1CC82D05
:1047D00002D36FF0060403E03046FCF7E0F8E9E7A7
:1047E00000BF2046F8BD014600204A1C5206100EAC
:1047F0007047014600200122C2EB6102D0B270472F
:10480000024600204FF0804100E089089142FCD828
:1048100009E04318934204D84318D21A01EB500020
:1048200000E0400889080029F3D1704770B50546BB
:104830000C460026B5F5803F02D2B4F5803F02D386
:104840004FF6FF7606E005FB05F104FB0410FFF7C9
:10485000D7FF0646304670BDF8B506460024002254
:1048600083213046FBF7C2FF0443A4B9002500BFF3
:104870006A4683213046FCF713F804469DF8000091
:1048800000B904B102E06D1CC82DF1D300BFC82DE2
:1048900001D36FF00604012283213046FBF7A6FF07
:1048A00004432046F8BD2DE9F04F93B005460F466E
:1048B000002400200E900D900C900B9082468346B1
:1048C0004FF4C8500A904FF0000900200990029060
:1048D000F020465D072E7DD0012280212846FBF77F
:1048E00085FF04430122FF212846FBF77FFF044395
:1048F000002211462846FBF779FF04430622FF21D8
:104900002846FBF773FF044312AA83212846FBF7CE
:10491000C7FF04439DF8480040F004028321284665
:10492000FBF764FF04430722FF212846FBF75EFFE5
:104930000443012281212846FBF758FF04432846FF
:10494000FCF72DF80443012280212846FBF74EFF97
:10495000044307F00100002855D006F001000028AC
:1049600051D16B2294212846FBF740FF044328468F
:10497000FFF772FF044311AA90212846FBF7CDFFF1
:1049800004431198C0F306200E901198C0F3C03074
:104990000D90242294212846FBF728FF0443284643
:1049A000FFF75AFF044311AA90212846FBF7B5FFF1
:1049B00004431198000E8DF800001198000C8DF83A
:1049C00001001198000A8DF802001198C0B28DF80C
:1049D000030000E0A5E1252294212846FBF706FF0D
:1049E00004432846FFF738FF044311AA90212846C4
:1049F000FBF793FF04431198000E8DF80400119803
:104A0000000C8DF8050007F0020002287ED106F0A8
:104A100002000028FAD1022294212846FBF7E6FE84
:104A200004432846FFF718FF044310AA90212846A4
:104A3000FBF736FF04437B2294212846FBF7D6FE82
:104A400004432846FFF708FF04430FAA9021284695
:104A5000FBF726FF0443772294212846FBF7C6FE86
:104A600004432846FFF7F8FE044311AA9021284684
:104A7000FBF753FF04437F21119801EA50608DF842
:104A800010001198C0F386408DF811001198C0F302
:104A9000C6208DF812001198C0F306108DF813008F
:104AA00011980007400E1290782294212846FBF7B7
:104AB0009DFE04432846FFF7CFFE044311AA902130
:104AC0002846FBF72AFF04437F21119801EA507022
:104AD0009DF848100844C0B28DF814001198C0F336
:104AE00086508DF815001198C0F3C6308DF8160069
:104AF0001198C0F306208DF817001198C0F34600F6
:104B00008DF818001198C007400E00E05EE012908A
:104B1000792294212846FBF769FE04432846FFF7D3
:104B20009BFE044311AA90212846FBF7F6FE04439E
:104B30007F21119801EA90609DF848100844C0B2A6
:104B40008DF819001198C0F3C6408DF81A0011981D
:104B5000C0F306308DF81B001198C0F346108DF895
:104B60001C001198C006400E12907A22942128460B
:104B7000FBF73CFE04432846FFF76EFE044311AAF0
:104B800090212846FBF7C9FE04437F21119801EAD2
:104B900090709DF848100844C0B28DF81D0011981F
:104BA000C0F3C6508DF81E001198C0F306408DF872
:104BB0001F001198C0F346208DF820001198C0F313
:104BC00086008DF8210000208DF8220007F00400F7
:104BD000042873D106F0040000286FD17B229421B1
:104BE0002846FBF703FE04432846FFF735FE04433F
:104BF0000CAA90212846FBF790FE04437C229421C6
:104C00002846FBF7F3FD04432846FFF725FE04433F
:104C10000BAA90212846FBF780FE044373229421BF
:104C20002846FBF7E3FD04432846FFF715FE04433F
:104C300011AA90212846FBF770FE04431198000644
:104C4000000C0990742294212846FBF7CFFD044301
:104C50002846FFF701FE044311AA90212846FBF7DE
:104C60005CFE04431199099840EA1160099075228D
:104C700094212846FBF7BAFD04432846FFF7ECFDD4
:104C8000044311AA90212846FBF747FE04431198DC
:104C900000064FEA1049762294212846FBF7A6FD2C
:104CA00004432846FFF7D8FD044311AA9021284663
:104CB000FBF733FE0443119849EA10690022812171
:104CC0002846FBF793FD04430622FF212846FBF705
:104CD0008DFD044312AA83212846FBF7E1FD04431E
:104CE0009DF8480000F0FB0283212846FBF77EFD7B
:104CF00004430122FF212846FBF778FD04430122EB
:104D000000212846FBF772FD04430022FF212846BC
:104D1000FBF76CFD0443002280212846FBF766FD6B
:104D20000443002C60D1072E5ED007F00100A8B12B
:104D300006F0010090B90E9885F813010D9885F8DA
:104D40001401A04607E01DF8081005F5957000F85D
:104D5000081008F10108B8F1060FF4DB07F00200B3
:104D6000022811D106F0020070B99DF84010F12020
:104D700041559DF83C10F220415505F1F300039098
:104D800004A9039801F0DBFC07F00400042824D1F7
:104D900006F0040008BB4FF48C700C994151001DC3
:104DA0000B9941510998400202904FF4907102987A
:104DB00048514FF0000BB9F1000F0CD00A98A9EB45
:104DC000000A4FF47A700AFB00F04FEA101BCBF197
:104DD00000000FFA80FBC5F80CB046EA07001290FD
:104DE0009DF84810F0204155204613B0BDE8F08FE3
:104DF000E0B5064640F277634FF4106202FB01F51E
:104E0000A5FB0307E0BD10B50146002000220023EA
:104E100061B14A1E02E052085C1CA3B222F0FF04FA
:104E2000002CF8D1144663F31F24A0B210BD014634
:104E30000020CAB20B0A9A40501C70472DE9F0437B
:104E400007460C46154600BF29463846FFF7D0FFF7
:104E5000814609F5FA704FF47A71B0FBF1F6084615
:104E6000604300EB5600B0FBF6F84046BDE8F08327
:104E70002DE9F04307460C4615464FF00008294639
:104E80003846FFF7B5FF814609F5FA704FF47A719D
:104E9000B0FBF1F604FB06F000EB5600B0FBF1F8B6
:104EA0004046BDE8F0832DE9F04F87B082460D46BD
:104EB00017460024002005908346049081461DB1CA
:104EC000012D01D0022D1AD106AA00215046FDF76E
:104ED00031FA04462CB905AA46215046FBF7E0FCFE
:104EE00004469DF81400FFF7A2FF1FFA80F89DF812
:104EF000182041465046FFF7BBFF83465EE0032D76
:104F000021D106AA00215046FDF714FA0446002CD0
:104F100054D106AA00215046FDF70CFA04462CB9DC
:104F200004AA51215046FBF7D9FC0446BDF81000F5
:104F3000FFF77DFF86B29DF8182031465046FFF7F7
:104F400097FF83463AE0042D38D101A95046FEF779
:104F5000D5F800269DF8070088B106AA0021504622
:104F6000FDF7E8F9044654B904AA51215046FBF76D
:104F7000B5FC0446BDF81000FFF759FF86B22CB906
:104F800006AA01215046FDF7D5F904465CB903AAEB
:104F900071215046FBF7A2FC0446BDF80C00FFF758
:104FA00046FF1FFA80F9A9EB06001FFA80F99DF869
:104FB000182049465046FFF75BFF8346C7F800B00C
:104FC000204607B0BDE8F08F2DE9F04F85B00646CA
:104FD0000D46174600241DB1012D01D0022D23D10D
:104FE00004AA00213046FDF7A5F904469CB99DF8B6
:104FF000102039463046FFF721FF1FFA80FABAF534
:10500000807F02DD4FF0FF0803E0AAF1010000F00D
:10501000FF08A6F8D880002C6FD1424646213046C2
:10502000FBF7E4FB044668E0032D23D1ACB904AAE6
:1050300000213046FDF77EF904469DF810203946E0
:105040003046FFF7FBFE1FFA80F94846FFF7DBFE0C
:105050000390BDF80C10D820815334B9BDF80C2052
:1050600051213046FBF7D8FB0446002C45D1E42003
:10507000875142E0042D3ED169463046FEF73EF8A6
:105080004FF000099DF8030090B104AA00213046BA
:10509000FDF750F904465CB903AA51213046FBF7ED
:1050A0001DFC0446BDF80C00FFF7C1FE1FFA80F995
:1050B0002CB904AA01213046FDF73CF90446E4B9B5
:1050C0009DF8102039463046FFF7B8FE1FFA80FBE6
:1050D0000BEB09001FFA80FB5846FFF794FE029085
:1050E0002CB971213046029AFBF796FB044624B98D
:1050F000DC20875101E06FF00304204605B0BDE8D5
:10510000F08F2DE9F04F87B007460E461546002474
:105110004FF00C094FF0120A4FF0080B0E200590CB
:1051200000200190284605EBD0714910A5EB410104
:1051300009B1241F10E036B94D4501DB554502DDAC
:105140006FF0030408E0012E06D15D4502DB0598EF
:10515000854201DD6FF003041CB1204607B0BDE8B5
:10516000F08FDEBB0C2D0CD1182257213846FBF7EF
:105170003DFB0446082256213846FBF737FB044620
:10518000E2E00E2D0CD1302257213846FBF72EFBE2
:105190000446082256213846FBF728FB0446D3E094
:1051A000102D0CD1402257213846FBF71FFB044637
:1051B000082256213846FBF719FB0446C4E0122D9D
:1051C000DED1502257213846FBF710FB0446082257
:1051D00056213846FBF70AFB0446B5E0FFE7012EEF
:1051E000CED1082D2AD1102248213846FBF7FEFAED
:1051F0000446082247213846FBF7F8FA0446022203
:1052000032213846FBF7F2FA04430C2230213846AB
:10521000FBF7ECFA04430122FF213846FBF7E6FADC
:105220000443302211463846FBF7E0FA04430022DB
:10523000FF213846FBF7DAFA044385E00A2D2AD12C
:10524000282248213846FBF7D1FA04460822472194
:105250003846FBF7CBFA0446032232213846FBF7E7
:10526000C5FA0443092230213846FBF7BFFA04434C
:105270000122FF213846FBF7B9FA044320223021EE
:105280003846FBF7B3FA04430022FF213846FBF708
:10529000ADFA044358E00C2D2AD138224821384673
:1052A000FBF7A4FA0446082247213846FBF79EFA8A
:1052B0000446032232213846FBF798FA04430822B9
:1052C00030213846FBF792FA04430122FF21384689
:1052D000FBF78CFA0443202230213846FBF786FA8C
:1052E00004430022FF213846FBF780FA04432BE0F9
:1052F0000E2D29D1482211463846FBF777FA04468D
:10530000082247213846FBF771FA0446032232216E
:105310003846FBF76BFA0443072230213846FBF787
:1053200065FA04430122FF213846FBF75FFA044384
:10533000202230213846FBF759FA04430022FF218E
:105340003846FBF753FA0443002C47D12846FFF7B1
:1053500050FA069016B1012E3CD124E003AA032195
:105360003846FFF7A0FD04462CB902AA02213846B0
:10537000FFF799FD04462CB950213846069AFBF7F1
:1053800035FA04462CB903213846039AFFF71CFE70
:1053900004462CB902213846029AFFF715FE04464E
:1053A000E820C55519E004AA04213846FFF77BFD23
:1053B00004462CB970213846069AFBF717FA0446C2
:1053C0002CB904213846049AFFF7FEFD0446E0207C
:1053D000C55502E06FF0030400BF00BF34B9D7F831
:1053E000148041463846FCF7B4FF044634B9012323
:1053F000002201A93846FEF70CFF04462046ADE620
:10540000F8B507460C461546002614B1012C0ED1FE
:1054100006E06A4650213846FBF742FA064609E0A4
:105420006A4670213846FBF73BFA064602E06FF009
:10543000030600BF00BF26B99DF80000FFF7D3F9AF
:1054400028703046F8BD2DE9F04F89B080460F46F0
:1054500000264FF4FA6006904FF4A5694FF4707A75
:105460004FF4257B40F24E20059040F2B22004908C
:105470004FF42570039040F2262002900020019006
:1054800044F62060009000250098874204D22E1F29
:10549000304609B0BDE8F08F09EB0A003C1A07A9B5
:1054A0004046FDF72BFE0646002E3BD19DF81C0022
:1054B00030B99DF81D0018B99DF81E00002831D0A4
:1054C00006AA02214046FFF7EEFC06460EB1304622
:1054D000DFE79DF81C0040B1DDE905010D18A5428C
:1054E00001D2641B01E06FF003060EB13046D0E735
:1054F0009DF81E0050B10699049808444500A54245
:1055000001D2641B0EE06FF003060BE09DF81D0056
:1055100040B1069800EB0B05A54201D2641B01E0E7
:105520006FF003060EB13046B3E79DF81F0070B16F
:1055300001AA03214046FFF7B6FC064601990398ED
:105540000D18A54201D2641B01E06FF0030666B995
:105550009DF8200048B10298241A224604214046B2
:10556000FFF732FD0646C8F81470304691E72DE982
:10557000F04F87B006460C4600254FF4FA600390C2
:1055800040F276774FF470784FF4257940F24E2A46
:1055900040F2B22B4846029040F2262001900020B3
:1055A000009007EB0800206005A93046FDF7A6FD36
:1055B00005461DB1284607B0BDE8F08F9DF81400E0
:1055C00028B99DF8150010B99DF8160008B303AA74
:1055D00002213046FFF767FC0546D5B99DF8140057
:1055E00020B1206803995144084420609DF81600BA
:1055F00038B1206803995944022202FB010020605F
:1056000007E09DF8150020B120680399494408443B
:10561000206075B99DF8170058B16A4603213046DD
:10562000FFF741FC05462168009A0298104408449F
:10563000206075B99DF8180058B104AA04213046BD
:10564000FFF731FC05462168049A0198104408448C
:1056500020600DB9216871612846ACE72DE9FF5F34
:1056600006460D4600200390002463E02F5D641C75
:10567000FF2F44D1285D0290641C029830B10128AC
:1056800011D002281CD0032834D126E015F804805C
:10569000641C15F80490641C09EB08201FFA80FABA
:1056A000A6F834A12AE015F80480641C15F80490CB
:1056B000641C09EB08201FFA80FAA6F836A11DE049
:1056C00015F80480641C15F80490641C09EB08208C
:1056D0001FFA80FAA6F838A110E015F80480641CBF
:1056E00015F80490641C09EB08201FFA80FAA6F84C
:1056F0003CA103E06FF00300039000BF1AE0042F09
:1057000015DC285D0190641C4FF0000B05E0285D5E
:105710000DF80B00641C0BF1010BBB45F7DB3B469E
:105720006A4630460199FBF745F9039002E06FF0B5
:1057300003000390285D10B10398002896D00398C9
:1057400004B0BDE8F09F2DE9F84305460E46144627
:1057500000270020206069462846FDF770FD0746B7
:105760005FB99DF8000040B1D5F82080B08A00FBF9
:1057700008F909F18000000A20603846BDE8F88386
:10578000F8B507460D4614460026E86820606A46CC
:1057900029463846FFF7D7FF06461EB9206800990C
:1057A000084420603046F8BD2DE9FF4F90B0174601
:1057B000DDF8788012200F904FF480400E90422048
:1057C0000D9006200C9007200B9000200090109860
:1057D000B0F854010A901098D0F858010990DDE90A
:1057E000091000FB01FA0AF180004FEA102A0A981A
:1057F0000AFB00FA00256FB1119880020190019810
:1058000000EB5705B5FBF7F505EB45056D4305F5D1
:105810000040050C1D99139848430890089800F51E
:105820000040000C089008984043089008F500409C
:10583000000C02900298C01C0621B0FBF1F002900F
:105840000298C0EBC00002900298B0F5803F02D3EE
:10585000FE4807900DE008F103000621B0FBF1F8C7
:10586000C8EBC80808F50040000C079007984043B3
:10587000079040F227100590059810FB00F0059066
:1058800041F2041004900498083000090490DDE906
:105890000410401A0590059800EB400000010690A6
:1058A000069800F50050800B0690DDE907104418BB
:1058B0001F9804EB50041F98B4FBF0F4A40306985F
:1058C00004EB50040698B4FBF0F46C4304F5FA7052
:1058D0004FF47A71B0FBF1F4240104F5FA70B0FBD7
:1058E000F1F44FF04009B9F1000F05D00AEB59006F
:1058F000B0FBF9F0039001E0002003900398FEF75D
:105900007FFF834624B10AEB5400B0FBF4F600E0BD
:1059100000263046FEF774FF06462098C0F800B017
:10592000B34501D920980660009814B0BDE8F08F07
:105930002DE9FF4FA7B004464FF4487026904FF46E
:10594000167025904220249041F25C202390C0489C
:1059500022904FF470402190BE482090BE481F9086
:105960004FF400401E904FF448101D9040F27760B5
:105970001C9000BF206A1290289800694FF47A7139
:105980004843000C13902898C06809900AAA204642
:105990002899FFF7F5FE12AA20462899FFF7D3FEB3
:1059A00010904FF47A710A9800FB01F707F5004058
:1059B000070C1298484311901198B0F5481F02D96E
:1059C0004FF4481011901098002842D1DC20005963
:1059D0001A90E020005D05902046059A1A99FFF77D
:1059E0002DFA0790E42000591990E820005D0490FA
:1059F0002046049A1999FFF721FA0690032008908F
:105A00000598082801D1022008900898C002DDE915
:105A10000612114400FB01FB0BF5FA704FF47A718A
:105A2000B0FBF1FB40F277600BFB00FB0BF5FA706B
:105A3000B0FBF1FB0A988030000A0A900A9800FB3C
:105A40000BF01B901B988030000A1B900A980002F4
:105A50000A90109818B110982BB0BDE8F08F4FB98C
:105A60007B49299801600846C4F8400100212A9822
:105A70000160ACE01B9808B901201B904FF44870FE
:105A8000189013980004B0FBF7F67248864200D9CC
:105A900006464FF4167046431B9901EB41018800FE
:105AA000FEF7AEFE40001790289800896A494843E7
:105AB00016901198C0EB074000F5FA704FF47A7118
:105AC000B0FBF1F00F90119800EB074000F5FA7071
:105AD000B0FBF1F10E910F9800020F90DDE90E126C
